:400000000080002011000000AD0A0000AD0A000008B5044B1A6803F53F5302331A6000F04DFD00BFFA46004010B5054C237833B9044B13B10448AFF300800123237010BDBF
:400040004081FF1F000000003C1F0000084B10B51BB108490848AFF300800848036803B910BD074B002BFBD0BDE81040184700BF000000004481FF1F3C1F0000C880FF1F5C
:400080000000000070B562B6484800F08BFD00F0BBF800F0C7FA682000F0ACFA00F03CF9434B1B68012B15D1424D434C00232A462146322000F0BCFA00232A4621463220E5
:4000C00000F026FB682000F095FA00F025F90022374B1A60364B1B68022B16D1354D364C00222946204600F0E7FA40F6B83000F00DFE00232A462146322000F009FB2C4C07
:40010000207900F091F800232360294B1B68032B3BD100F0A5FD00F095FD0023254A2649322000F0F5FA01F0A9FE84B200F036FB08E000231F4A2049322000F0E9FA01F0AE
:400140009DFE84B20A2CF4D81A4E1B4D00223146284600F0B1FA00F02BFB3230174BA3FB00235B09642202FB03F3114CA36000F035FB41F2883000F0C9FD00233246294697
:40018000322000F0C5FA00232360094B1B68042B86D168215A2000F0F3F900F0BDF8044C207900F041F80023236079E7FD0100005C81FF1F06819540008024431F85EB5183
:4001C000BB280CD002D8AA2805D07047CC280AD0DD280CD070470122074B1A6070470222054B1A6070470322034B1A6070470422014B1A60704700BF5C81FF1F08B500F0A9
:4002000007F8FFF7DDFF08BD08B500F06FFD08BD10B5002402E000F003FD044600F006FD0028F8D1204610BD10B5044600F018FD204600F0E9FC10BD08B5002000F00CFF3A
:40024000002000F021FF002000F012FF012000F027FF08BD08B5002000F016FF002000F007FF002000F01CFF012000F0F5FE08BD08B5002000F0F0FE002000F0F9FE002063
:4002800000F00EFF012000F0FFFE08BD08B5002000F0E2FE002000F0F7FE002000F000FF012000F0E5FE08BD08B5002000F0ECFE002000F0DDFE012000F0F2FE012000F040
:4002C000CBFE08BD08B5002000F0EAFE002000F0CFFE012000F0D8FE012000F0BDFE08BD08B5002000F0B8FE002000F0D9FE012000F0BEFE012000F0C7FE08BD08B50020B7
:4003000000F0C2FE002000F0A7FE012000F0C8FE012000F0ADFE08BD08B5002000F0B4FE002000F0A5FE002000F0BAFE002000F093FE08BD08B5682879D0772803D066280A
:4003400040F0FD8039E07E4B1B78072B00F2F780DFE803F0040410101C1C2828012902D1FFF76AFF01E0FFF791FF754A13780233137008BD012902D1FFF76CFF01E0FFF797
:4003800077FF6F4A13780233137008BD012902D1FFF76EFF01E0FFF75DFF694A13780233137008BD012902D1FFF770FF01E0FFF743FF0022624B1A7008BD614B1B78072BAE
:4003C00000F2BD80DFE803F0040410101C1C2828012902D1FFF768FF01E0FFF78FFF584A13780233137008BD012902D1FFF76AFF01E0FFF775FF524A13780233137008BDB0
:40040000012902D1FFF76CFF01E0FFF75BFF4C4A13780233137008BD012902D1FFF76EFF01E0FFF741FF0022454B1A7008BD444B1B78072B00F28380DFE803F004142434A4
:4004400044546474012906D1FFF7F6FE3C4A13780133137008BDFFF751FF394A13780133137008BD012906D1FFF71EFF344A13780133137008BDFFF709FF314A13780133F3
:40048000137008BD012906D1FFF7E4FE2C4A13780133137008BDFFF723FF294A13780133137008BD012906D1FFF70CFF244A13780133137008BDFFF7DBFE214A137801339C
:4004C000137008BD012906D1FFF7D2FE1C4A13780133137008BDFFF7F5FE194A13780133137008BD012906D1FFF7FAFE144A13780133137008BDFFF7ADFE114A137801331E
:40050000137008BD012906D1FFF7C0FE0C4A13780133137008BDFFF7C7FE094A13780133137008BD012905D1FFF7E8FE0022044B1A7008BDFFF780FE0022014B1A7008BD7F
:400540006881FF1F70B50E46051E0CDA08E000213046FFF7EFFE052000F0D8FB013C00E00024AC42F3DC002407E001213046FFF7E1FE052000F0CAFB0134AC42F5DB70BD38
:4005800038B504460D46682913D1194B5868A04222D0201A00F0FEFE11A3D3E9002300F05FFF01F06FF9124B5C602946FFF7CAFF38BD0F4B586884420ED0201A00F0EAFED8
:4005C00009A3D3E9002300F04BFF01F05BF9084B5C602946FFF7B6FF38BD00BFAFF300804A0C022B8716D13FA01A2FDD2406C13F6881FF1F10B50446682805D101466FF0B0
:400600005F00FFF79FFF04E001466FF02F00FFF799FF0020024B58602146FFF7B1FF10BD6881FF1F08B500F075FC00F081FC08BD2DE9F04F83B000AF06468A4691467B6025
:40064000054683000A3323F00703ADEB030DEB4600244FF000080FE0002000F071FC58B100F080FC01F0F0F901464BF82400404601F036F980460134AC42EDDB304601F0E7
:40068000E3F90146404601F0E7FA514601F026F9494601F0E1FA0446786801F0D5F90146204601F01BF9034B18600C37BD46BDE8F08F00BF7081FF1FF8B507460E4615467B
:4006C0001BE0002000F03CFCB8B100F04BFC80B201F0B6F9394601F001F9314601F0BCFA094B196801F0FAF80446284601F0ACF90146204601F0F2F804460449204601F041
:4007000095FB0028DDD1F8BD7081FF1F000048422DE9F04F83B000AF06468A4691467B60054683000A3323F00703ADEB030DEB4600244FF000080FE0002000F001FC58B18F
:4007400000F010FC01F080F901464BF82400404601F0C6F880460134AC42EDDB304601F073F90146404601F077FA514601F0B6F8494601F071FA084B196801F0AFF80446A6
:40078000786801F05DF90146204601F0A7F80C37BD46BDE8F08F00BF7081FF1F08B500F04DFC00F01BFC014B186008BD7481FF1F10B500F013FC074C60602368181AA06070
:4007C000054BA3FB00304009E06000F0E1FBE06810BD00BF7481FF1F1F85EB5110B582B055238DF8043033238DF8053081238DF80630002406E002AB234413F8040CFFF7F9
:4008000013FD0134022CF6DD02B010BDFEE700BFF0B40022174611E050F82760F3B226F0FF0608E001EB420511F812406D78A5550132013BDBB2002BF4D10137172FEBD929
:40084000F0BC70470C4B1B78DBB203F007010B4A11701B09013213700822094B1A70802203F62B131A70202203331A704422A3F2B5231A70704700BFCF0100496E58004094
:40088000FD51004008B50A46002101F04EFB08BD08B501F03FFB08BD38B50B222F4B1A8018232F4A1370EF21023211800232137004222C492C48FFF7EBFF02222B4B1A70CC
:4008C00008224FF040231A70032103F500731970274B1B78DBB227490B70274B1A8041F25122023B1A80002419250CE0234B1B7803F0010343EA440404F003044FF4F0702B
:4009000000F0E6FB013D0DB1032CEFD115B90320FFF77CFF1A4B4FF480721A8007221A70002218490A704820023108701A700222033B1A7004220A331A70134A137843F024
:4009400003031370013A137843F001031370013A137843F08003137038BD00BF8040004082400040DC030048004100400043004008010049A14600402242004025420040CA
:400980000440004006400040A243004038B572B6314A137843F00403137000240CE02F4D630019194A0011462A44084691882858FFF768FF0134E4B2062CF0D928494FF046
:4009C0009040FFF725FF274A274B1A60274A137843F0020313701032137843F002031370234C237843F040032370A2F58632513A137843F01003137008221E491E48FFF743
:400A000047FF08221D491E48FFF742FF08221D491D48FFF73DFF08221C491D48FFF738FF08221C491C48FFF733FF1C4A137843F0080313701A4D61232B70FFF72DFF8123E2
:400A40002B700122174B1A70FFF7FCFE0E2221461548FFF71DFF38BDE8460040401F000060000048040404A4D818014003500140A0430040B403004802510040BC0300483B
:400A8000F2510040C403004812510040CC03004822510040D403004832510040224300400048004004000840B043004008B501F005FA03680C2B00D1FEE7FEE708B5104EA4
:400AC000104D16E029686B68AC68002204E051F8040B43F8040B0432A242F8D1E868002203E0002143F8041B04328242F9D11035013E002EE6D101F0E7F9FFF7C3FAFEE73A
:400B000001000000901F000008B5104A104B1A60104A136843F40073136000230AE0032B03D80D4A52F8231000E00C490C4A42F8231001332F2BF2D90A4B1A780A4B1A7026
:400B4000074A0A4B1A60FFF721FF08BD0004FA050CED00E014ED00E000000000AD0A00000080FF1FBC760040C080FF1F08ED00E0014B1B681864704708ED00E04001C0B239
:400B8000014B1870704700BF00E400E00122014B1A60704700E100E00122014B1A60704780E100E010B50446FFF7F6FF2046FFF7DFFF0720FFF7E2FFFFF7E8FF10BD00BF4A
:400BC00008B500F08DFA094A137843F020031370013A137843F010031370A2F58072137843F01003137000F07FFA08BD99650040014B1878704700BF68650040014B1878F7
:400C0000704700BF68640040034B1B7813F0020FFAD0024B187070476865004049640040014B1878704700BF59640040044B1B7813F0080F01D0012070470020704700BF63
:400C40006864004001E0044B1B78044B1B7813F0080FF8D1704700BF596400406864004008B500F03DFA064B1A7842F003021A701A7802F0FC021A7000F036FA08BD00BF29
:400C80009964004008B501E00A4B1B780A4B1B7813F0080FF8D100F023FA084B1A7842F003021A701A7802F0FC021A7000F01CFA08BD00BF59640040686400409964004017
:400CC00008B50722074B1A70FFF7DCFFFFF790FFFFF794FF0022044B1A700822A3F580731A7008BD896500408865004008B5054B1B7823B9FFF7E4FF0122024B1A70FFF7B4
:400D00005FFF08BD8C81FF1F01BE704710B5044605E0084B186800F0DBF9A4F50044B4F5004FF6D8034B586800FB04F000F0D0F910BD00BFCC80FF1F08B5034B1B7A00FB7A
:400D400003F000F0C5F908BDCC80FF1F70B504460E46074B1D681F2802D90020FFF7D4FF04F01F04103455F8240045F8246070BD08ED00E038B504460D46072902D90020BA
:400D8000FFF7C2FF1F2C02D90020FFF7BDFF04F01F0000F1604000F564406D01EDB2057038BD00BF08B50A280FD00C2802D0082806D102E04FF4805209E04FF4807206E03B
:400DC0000020FFF7A1FF002201E04FF480620021094B198042F2107303FB02F303F6C413064A82FB0302DB17C3EBE223044A1360044B198008BD00BF9081FF1FAD8BDB683F
:400E00009481FF1F9281FF1F38B500F069F904461F4A137843F0020313701032137843F0020313701A3A137843F0010313701032137843F00103137002F5AA521A321378A4
:400E400003F0FE0343F0020313700422114B1A70013B1A7842F040021A701A7802F0FC021A70C822053B1A700225A3F59753123B1D70094A137843F0080313700A20FFF7E9
:400E80005BFF064B1D60204600F02EF938BD00BFAB4300400E5900402F5B004080E200E010B504460A280DD00C2802D0082804D101E0C42207E0442205E00020FFF724FF9D
:400EC000C42200E08422034B1A702046FFF76AFF10BD00BF0A59004008B5102000F0ECF807210120FFF746FF07490120FFF72EFF064A137843F0060313700C20FFF7D0FF56
:400F00000022034B1A8008BD7D0F0000095900409881FF1F08B5054B1B7823B9FFF7DCFF0122024B1A70FFF76FFF08BD8D81FF1F024A137843F001031370704708590040F8
:400F400010B5074B1B7813F0010401D10028F8D024B10120FFF7F0FE014B1B78204610BD09590040034B188880B2034B1B88C01A00B27047A25B00409281FF1F704700BF37
:400F8000024A137843F08003137070477B650040024A137803F07F03137070477B650040014B1870704700BF8B650040014B1878704700BF6B650040014B1860704700BF8E
:400FC00028650040014B1868704700BF48650040014B1860704700BF08650040024B1B78024B1868704700BF086500404865004008B501E0FFF7E6FFFFF7D8FF10F0080FF4
:40100000F8D108BD10B50B4C2046FFF7D5FF2046FFF7DEFF00F064F8074A137843F01003137000F061F8FFF7E3FF0120FFF7B8FF10BD00BFFFE0F5059B65004008B5054B0B
:401040001B7823B9FFF7DEFF0122024B1A70FFF797FF08BD8E81FF1F044A137803F0EF03000100F0100018431070704720510040044A137803F0BF03800100F0400018431A
:401080001070704720510040044A137803F0DF03400100F0200018431070704720510040044A137803F0F703C00000F0080018431070704720510040034B1A7800F0F8007D
:4010C00010431870704700BF02410040000000000230800803D000BF01380046FCD17047EFF3108072B6704780F31088704700BF81F0004102E000BF83F0004330B54FEAD4
:4011000041044FEA430594EA050F08BF90EA020F1FBF54EA000C55EA020C7FEA645C7FEA655C00F0E2804FEA5454D4EB5555B8BF6D420CDD2C4480EA020281EA030382EAD7
:40114000000083EA010180EA020281EA0303362D88BF30BD11F0004F4FEA01314FF4801C4CEA113102D0404261EB410113F0004F4FEA03334CEA133302D0524263EB43035F
:4011800094EA050F00F0A780A4F10104D5F1200E0DDB02FA0EFC22FA05F2801841F1000103FA0EF2801843FA05F359410EE0A5F120050EF1200E012A03FA0EFC28BF4CF09D
:4011C000020C43FA05F3C01851EBE37101F0004507D54FF0000EDCF1000C7EEB00006EEB0101B1F5801F1BD3B1F5001F0CD349085FEA30004FEA3C0C04F101044FEA44525D
:4012000012F5800F80F09A80BCF1004F08BF5FEA500C50F1000041EB045141EA050130BD5FEA4C0C404141EB010111F4801FA4F10104E9D191F0000F04BF01460020B1FA99
:4012400081F308BF2033A3F10B03B3F120020CDA0C3208DD02F1140CC2F10C0201FA0CF021FA02F10CE002F11402D8BFC2F1200C01FA02F120FA0CFCDCBF41EA0C01904078
:40128000E41AA2BF01EB0451294330BD6FEA04041F3C1CDA0C340EDC04F11404C4F1200220FA04F001FA02F340EA030021FA04F345EA030130BDC4F10C04C4F1200220FA62
:4012C00002F001FA04F340EA0300294630BD21FA04F0294630BD94F0000F83F4801306BF81F480110134013D4EE77FEA645C18BF7FEA655C29D094EA050F08BF90EA020FFF
:4013000005D054EA000C04BF1946104630BD91EA030F1EBF0021002030BD5FEA545C05D14000494128BF41F0004130BD14F580043CBF01F5801130BD01F0004545F0FE410C
:4013400041F470014FF0000030BD7FEA645C1ABF194610467FEA655C1CBF0B46024650EA013406BF52EA033591EA030F41F4002130BD00BF90F0000F04BF0021704730B500
:401380004FF4806404F132044FF000054FF0000150E700BF90F0000F04BF0021704730B54FF4806404F1320410F0004548BF40424FF000013EE700BF42004FEAE2014FEA77
:4013C00031014FEA02701FBF12F07F4393F07F4F81F06051704792F0000F14BF93F07F4F704730B54FF4607401F0004521F0004120E700BF50EA010208BF704730B54FF0AF
:4014000000050AE050EA010208BF704730B511F0004502D5404261EB41014FF4806404F132045FEA915C3FF4DCAE4FF003025FEADC0C18BF03325FEADC0C18BF033202EB00
:40144000DC02C2F1200300FA03FC20FA02F001FA03FE40EA0E0021FA02F11444C1E600BF70B54FF0FF0C4CF4E06C1CEA11541DBF1CEA135594EA0C0F95EA0C0F00F0DEF80A
:401480002C4481EA030621EA4C5123EA4C5350EA013518BF52EA033541F4801143F4801338D0A0FB02CE4FF00005E1FB02E506F00042E0FB03E54FF00006E1FB03569CF02E
:4014C000000F18BF4EF0010EA4F1FF04B6F5007F64F5407404D25FEA4E0E6D4146EB060642EAC62141EA55514FEAC52040EA5E504FEACE2EB4F1FD0C88BFBCF5E06F1ED88A
:40150000BEF1004F08BF5FEA500E50F1000041EB045170BD06F0004646EA010140EA020081EA0301B4EB5C04C2BFD4EB0C0541EA045170BD41F480114FF0000E013C00F307
:40154000AB8014F1360FDEBF002001F0004170BDC4F10004203C35DA0C341BDC04F11404C4F1200500FA05F320FA04F001FA05F240EA020001F0004221F0004110EBD370B7
:4015800021FA04F642EB06015EEA430E08BF20EAD37070BDC4F10C04C4F1200500FA04F320FA05F001FA04F240EA020001F0004110EBD37041F100015EEA430E08BF20EA3F
:4015C000D37070BDC4F1200500FA05F24EEA020E20FA04F301FA05F243EA020321FA04F001F0004121FA04F220EA020000EBD3705EEA430E08BF20EAD37070BD94F0000F3A
:401600000FD101F00046400041EB010111F4801F08BF013CF7D041EA060195F0000F18BF704703F00046520043EB030313F4801F08BF013DF7D043EA0603704794EA0C0FAB
:401640000CEA135518BF95EA0C0F0CD050EA410618BF52EA4306D1D181EA030101F000414FF0000070BD50EA410606BF1046194652EA430619D094EA0C0F02D150EA0136ED
:4016800013D195EA0C0F05D152EA03361CBF104619460AD181EA030101F0004141F0FE4141F470014FF0000070BD41F0FE4141F4780170BD70B54FF0FF0C4CF4E06C1CEA87
:4016C00011541DBF1CEA135594EA0C0F95EA0C0F00F0A7F8A4EB050481EA030E52EA03354FEA013100F088804FEA03334FF0805545EA131343EA12634FEA022245EA111562
:4017000045EA10654FEA00260EF000419D4208BF964244F1FD0404F5407402D25B084FEA3202B61A65EB03055B084FEA32024FF480104FF4002CB6EB020E75EB030E22BF25
:40174000B61A754640EA0C005B084FEA3202B6EB020E75EB030E22BFB61A754640EA5C005B084FEA3202B6EB020E75EB030E22BFB61A754640EA9C005B084FEA3202B6EB2F
:40178000020E75EB030E22BFB61A754640EADC0055EA060E18D04FEA051545EA16754FEA06164FEAC30343EA52734FEAC2025FEA1C1CC0D111F4801F0BD141EA00014FF0AE
:4017C00000004FF0004CB6E711F4801F04BF01430020B4F1FD0C88BFBCF5E06F3FF6AFAEB5EB030C04BFB6EB020C5FEA500C50F1000041EB045170BD0EF0004E4EEA1131F4
:4018000014EB5C04C2BFD4EB0C0541EA045170BD41F480114FF0000E013C90E645EA060E8DE60CEA135594EA0C0F08BF95EA0C0F3FF43BAF94EA0C0F0AD150EA01347FF404
:4018400034AF95EA0C0F7FF425AF104619462CE795EA0C0F06D152EA03353FF4FDAE1046194622E750EA410618BF52EA43067FF4C5AE50EA41047FF40DAF52EA43057FF4F3
:40188000EBAE12E74FEA410212F5001215D211D56FF47873B3EB625212D94FEAC12343F0004343EA505311F0004F23FA02F018BF404270474FF00000704750EA013005D1A0
:4018C00011F0004008BF6FF0004070474FF00000704700BF80F0004002E000BF81F0004142001FBF5FEA410392EA030F7FEA226C7FEA236C6AD04FEA1262D2EB1363C1BF0E
:40190000D218414048404140B8BF5B42192B88BF704710F0004F40F4000020F07F4018BF404211F0004F41F4000121F07F4118BF494292EA030F3FD0A2F1010241FA03FC0C
:4019400010EB0C00C3F1200301FA03F100F0004302D5494260EB4000B0F5000F13D3B0F1807F06D340084FEA310102F10102FE2A51D2B1F1004F40EBC25008BF20F001006D
:4019800040EA03007047490040EB000010F4000FA2F10102EDD1B0FA80FCACF1080CB2EB0C0200FA0CF0AABF00EBC25052421843BCBFD0401843704792F0000F81F40001F7
:4019C00006BF80F400000132013BB5E74FEA41037FEA226C18BF7FEA236C21D092EA030F04D092F0000F08BF0846704790EA010F1CBF0020704712F07F4F04D1400028BFA8
:401A000040F00040704712F100723CBF00F50000704700F0004343F0FE4040F4000070477FEA226216BF08467FEA23630146420206BF5FEA412390EA010F40F480007047E3
:401A40004FF0000304E000BF10F0004348BF40425FEA000C08BF704743F0964301464FF000001CE050EA010208BF70474FF000030AE000BF50EA010208BF704711F00043AF
:401A800002D5404261EB41015FEA010C02BF84460146002043F0B64308BFA3F18053A3F50003BCFA8CF2083AA3EBC25310DB01FA02FC634400FA02FCC2F12002BCF1004F95
:401AC00020FA02F243EB020008BF20F00100704702F1200201FA02FCC2F1200250EA4C0021FA02F243EB020008BF20EADC7070474FF0FF0C1CEAD0521EBF1CEAD15392EAA8
:401B00000C0F93EA0C0F6FD01A4480EA010C400218BF5FEA41211ED04FF0006343EA501043EA5111A0FB01310CF00040B1F5000F3EBF490041EAD3715B0040EA010062F122
:401B40007F02FD2A1DD8B3F1004F40EBC25008BF20F00100704790F0000F0CF0004C08BF49024CEA502040EA51207F3AC2BFD2F1FF0340EAC250704740F400004FF0000377
:401B8000013A5DDC12F1190FDCBF00F000407047C2F10002410021FA02F1C2F1200200FA02FC5FEA310040F1000053EA4C0308BF20EADC70704792F0000F00F0004C02BF9A
:401BC000400010F4000F013AF9D040EA0C0093F0000F01F0004C02BF490011F4000F013BF9D041EA0C018FE70CEAD15392EA0C0F18BF93EA0C0F0AD030F0004C18BF31F05A
:401C0000004CD8D180EA010000F00040704790F0000F17BF90F0004F084691F0000F91F0004F14D092EA0C0F01D142020FD193EA0C0F03D14B0218BF084608D180EA0100E8
:401C400000F0004040F0FE4040F40000704740F0FE4040F4400070474FF0FF0C1CEAD0521EBF1CEAD15392EA0C0F93EA0C0F69D0A2EB030280EA010C49024FEA402037D06D
:401C80004FF0805343EA111143EA10130CF000408B4238BF5B0042F17D024FF4000C8B4224BF5B1A40EA0C00B3EB510F24BFA3EB510340EA5C00B3EB910F24BFA3EB910330
:401CC00040EA9C00B3EBD10F24BFA3EBD10340EADC001B0118BF5FEA1C1CE0D1FD2A3FF650AF8B4240EBC25008BF20F0010070470CF0004C4CEA50207F32C2BFD2F1FF0357
:401D000040EAC250704740F400004FF00003013A37E792F0000F00F0004C02BF400010F4000F013AF9D040EA0C0093F0000F01F0004C02BF490011F4000F013BF9D041EAA9
:401D40000C0195E70CEAD15392EA0C0F08D142027FF47DAF93EA0C0F7FF470AF084676E793EA0C0F04D14B023FF44CAF08466EE730F0004C18BF31F0004CCAD130F0004260
:401D80007FF45CAF31F000437FF43CAF5FE700BF4FF0FF3C06E000BF4FF0010C02E000BF4FF0010C4DF804CD4FEA40024FEA41037FEA226C18BF7FEA236C11D001B052EAE4
:401DC000530C18BF90EA010F58BFB2EB030088BFC81738BF6FEAE17018BF40F0010070477FEA226C02D15FEA402C05D17FEA236CE4D15FEA412CE1D05DF8040B704700BFA3
:401E0000844608466146FFE70FB5FFF7C9FF002848BF10F1000F0FBD4DF808EDFFF7F4FF0CBF012000205DF808FB00BF4DF808EDFFF7EAFF34BF012000205DF808FB00BFC6
:401E40004DF808EDFFF7E0FF94BF012000205DF808FB00BF4DF808EDFFF7D2FF94BF012000205DF808FB00BF4DF808EDFFF7C8FF34BF012000205DF808FB00BF42000ED298
:401E8000B2F1FE4F0BD34FF09E03B3EB126209D44FEA002343F0004323FA02F070474FF00000704712F1610F01D1420202D14FF0FF3070474FF00000704700BF014B1868F5
:401EC000704700BF3C81FF1F0E4B70B51E460E4C0025E41AA410A54204D056F8253098470135F8E700F042F8084B094C1E46E41AA4100025A54204D056F8253098470135AC
:401F0000F8E770BD781F0000781F0000781F0000801F000010B5431E0A44914204D011F8014B03F8014FF8E710BD03460244934202D003F8011BFAE77047000000000000E5
:401F4000405100403000C0510040100000000140001000140140000800400140000A004C014000020050014020004300F8B500BFF8BC08BC9E4670474D000000090B000063
:401F8000F8B500BFF8BC08BC9E46704729000000A01F0000C880FF1F7800000060000000000000000000E02EC05D00001800000000366E0100000000000000000000000094
:401FC00000000000000000000000000000000000000000006A1F00000000000000000000000000000000000000000000000000000000000000000000000000000000000058
:402000000000000000000000000000000000000000000000DC80FF1F0000000000000000000000000000000000000000000000000000000000000000000000000000000026
:402040000000000000000000000000000000000000000000000000000000000000000000000000000000000000000000000000000000000000000000000000000000000060
:402080000000000000000000000000000000000000000000000000000000000000000000000000000000000000000000000000000000000000000000000000000000000020
:4020C00000000000000000000000000000000000000000000000000000000000000000000000000000000000000000000000000000000000000000000000000000000000E0
:40210000000000000000000000000000000000000000000000000000000000000000000000000000000000000000000000000000000000000000000000000000000000009F
:020000040003F7
:0200000480007A
:40000000035200400164004004650040010701402F0801402409014030140140201501404718014033190140351A0140201B01400340014001410140014201400343014068
:40004000034601400247014001480140094901400E4C0140044D0140055001400151014008400B4019108878850F884789078B0DE602542056045B045F018E019002950186
:4000800096069A019C08A001A401A801B004B101B202B401B608BE54BF01C002C104C220C401C5CEC6BFC70DC81FC9FFCAFFCBFFCC22CEF0CF0CD08CD110D608D804D90460
:4000C000DA24DB04DD08DF01E840E901EAC0EB010140080809800A410B0810A819A01A401B0420C033083F0C404549024A10500451A05304588059205A085E016008624448
:40010000658067547A028740C001C20FC40ECC02D00DD68ED8FEDE088202830E860587018A09910896049702AD01B008B101B202B302B404B508B601B704BE10C030C10639
:40014000C5D0C620C751C83AC9FFCAFFCBFFCDA0CF04D018D280D407D804D904DA04DB04DC11DD11DF01E040E2C0E440E540E6C0E8C0EAC0ECC0EEC0050406880F201D8C3D
:400180001E482460261027012E40350437013E0A45084F21560A57105C405E285F01768080108980C070C220CA10CCC0CEC0D040D220D6F0E220EE08401349FF4AFF4BFF47
:4001C0004F01501854415A045B045D015F016040624064406540668068806A806C806E808480870189058A1E8C108E4196219A80A041A202A441A604A841AA08AF07B08087
:40020000B220B304B440B502B61FB701BE51BF44C013C9FFCAFFCBFFCD83CE03CF01D018D602D72CD804D904DA04DB24DC08DD81DE08DF01E040E240E440E540E680E88012
:40024000EA80EC80EE8000100140022009200A2010A81895211022802310280236C039243A04410843404508461047405D045EA06040671068A869407A2282109040940592
:4002800095409A04A120A230A4A8A602A884AC40B102B264B318C007C206C40ECA08CE06D05AD670D841DE0AE604E802401249FF4AFF4BFF4D834E034F01501856085A048A
:4002C0005B045D015F016040624064406540668068806A806C806E808601AE01B001BE01C012C5ECC620C80BC9FFCAFFCBFFCD83CE03CF01D018D280D401D804DA04DB04EE
:40030000DD11DF01E040E240E440E540E680E880EA80EC80EE80061017401E8041204340452047404D044F01552056105A405D045E805F01600277408004824090049C0231
:400340009E109F40AA02B440C020C480D03CD6D8D808EA01EE0832203680CC30A6A0A6A08620A6A0E64000080680C00C9A80A004A6805310620882088B10AE80D420D840A5
:40038000E220EE100E081F805C017304820493049A80AF04B004C201C601D601DC04EA04AA80AF80B401EC0800010C0110031A021C03000F00000000000004003000000046
:4003C00000000801804B4B0040400001007878000000000000181800180000000C001801000000000000000000000000000000000000000000000000000000000000000000
:4004000000000000000000000000000000000000000000000000000000000000000000000000000000000000000000000000000000000000000000000000000000000000BC
:40044000000000000000000000000000000000000000000000000000000000000000000000000000000000000000000000000000000000000000000000000000000000007C
:40048000000000000000000000000000000000000000000000000000000000000000000000000000000000000000000000000000000000000000000000000000000000003C
:4004C00000000000000000000000000000000000000000000000000000000000000000000000000000000000000000000000000000000000000000000000000000000000FC
:0200000490006A
:0400000000004005B7
:0200000490105A
:04000000BC90ACAF55
:0200000490303A
:02000000EE21EF
:0200000490402A
:4000000000000000000000000000000000000000000000000000000000000000000000000000000000000000000000000000000000000000000000000000000000000000C0
:400040000000000000000000000000000000000000000000000000000000000000000000000000000000000000000000000000000000000000000000000000000000000080
:400080000000000000000000000000000000000000000000000000000000000000000000000000000000000000000000000000000000000000000000000000000000000040
:4000C0000000000000000000000000000000000000000000000000000000000000000000000000000000000000000000000000000000000000000000000000000000000000
:0200000490501A
:0C00000000012E16106900012E23FE8A5C
:00000001FF