:400000000080002011000000A9040000A904000080B500AF024A034B1B68136000F04EFABC760040FA46004010B5054C237833B9044B13B10448AFF300800123237010BD75
:400040004081FF1F00000000CC0D0000084B10B51BB108490848AFF300800848036803B910BD074B002BFBD0BDE81040184700BF000000004481FF1FCC0D0000C880FF1F60
:400080000000000080B400AF054B1B78054B1B780133DAB2034B1A7000BFBD4680BC7047636400405F81FF1F80B500AF62B61E4800F052FB00F0CCFA00F0E0FB00210020E4
:4000C00000F0EEFB194800F023FC0721002000F0E7FB00F0EBFA0346184600F0BFFD0C21002000F0DDFB00F0FDFA0346184600F0B5FD0021012000F0D3FB00F00FFB0346ED
:40010000184600F0ABFD0521012000F0C9FB084800F0FEFB074B1B789BB2184600F09EFD642000F0B1FDD0E785000000D00D0000D80D00005F81FF1F80B582B000AF78606E
:4001400039603A680021786800F037FE00BF0837BD4680BD80B584B000AFF860B9607A607A68B968F86800F01DFE00BF1037BD4680BD00BF80B584B000AFF860B9607A60A7
:400180007A68B968F86800F00DFE00BF1037BD4680BD00BF80B483B000AF0346FB71FEE780B487B000AF7860396000233B6100237B6127E07B699B007A6813441B68BB6086
:4001C000BB68FB73BB6823F0FF03BB6014E03B695B003A6813441B781A46BB68134419463B695B003A6813445B780B703B6901333B61FB7B013BFB73FB7B002BE7D17B694C
:4002000001337B617B690C2BD4D900BF1C37BD4680BC704780B582B000AF344B40F65F121A80334B18221A70324B43F697221A80314B19221A70314B02221A704FF04023B0
:4002400008221A702E4B03221A702E4B2E4A1278D2B21A702D4B08221A802D4B41F251221A800023FB7019237B6014E0FB785B00DAB2284B1B78DBB203F00103DBB21343C5
:40028000DBB203F00303FB704FF4F07000F034FD7B68013B7B607B68002B02D0FB78032BE4D17B68002B02D10320FFF773FF1A4B4FF480721A80184B07221A70174B00221F
:4002C0001A70174B48221A70134B00221A70154B02221A70144A144B1B78DBB243F00303DBB2137000BF0837BD4680BD804000408240004084400040864000400043004013
:4003000000420040A14600400801004922420040204200402542004004400040064000400840004001400040A243004080B483B000AF0B4B1B78FB710A4AFB7903F007036D
:40034000DBB21370084AFB791B09DBB21370074B44221A7000BF0C37BD4680BC704700BFCF0100496E5800406F5800407658004080B582B000AF72B6394A394B1B78DBB2E1
:4003800043F00403DBB213700023FB7113E0FA7913465B0013445B00324A13443B603B681A683B689B889BB219461046FFF7C4FEFB790133FB71FB79072BE8D92A492B4824
:4003C000FFF7EEFE2A4A2A4B1B78DBB243F00203DBB21370274A274B1B78DBB243F00203DBB21370244A244B1B78DBB243F04003DBB21370214A214B1B78DBB243F01003BF
:40040000DBB2137008221E491E48FFF7B3FE08221D491E48FFF7AEFE08221D491D48FFF7A9FE1D4A1C4B1B78DBB243F00803DBB213701A4B60221A70FFF7ECFE174B802253
:400440001A70174B01221A70FFF770FF0E220A491448FFF77FFE00BF0837BD4680BD00BFE8460040E00D0000440E0000100E00000350014013500140A0430040C2430040C4
:40048000440F0000025100404C0F000012510040540F000022510040224300400048004004000840B043004080B500AF00F04EFC03461B680C2B00D1FEE7FEE780B586B06F
:4004C00000AF224B7B61224B3B61204B7B6135E03B691B68FB603B695B68BB603B699B683B6000237B600CE0FB681A68BB681A60BB680433BB60FB680433FB607B68043369
:400500007B607A683B689A42EED13B69DB683B6000237B6008E0BB6800221A60BB680433BB607B6804337B607A683B689A42F2D13B6910333B617B69013B7B617B69002B7D
:40054000C6D100F009FCFFF7AFFDFEE701000000940F000080B582B000AF184B184A1A60184A184B1B6843F40073136000237B600FE07B68032B04D8134A7B6852F8233053
:4005800000E0124B12497A6841F822307B6801337B607B682F2BECD90E4B1B78DAB20E4B1A700E4B0A4A1A60FFF7E2FE0C4B00221A6000BF0837BD4680BD00BF0CED00E021
:4005C0000004FA0514ED00E000000000A90400000080FF1FBC760040C480FF1F08ED00E0C080FF1F80B582B000AF48F6CF2000F069F848F6CF2000F081F800F09CFB0346CB
:40060000FB710A4A094B1B78DBB243F01003DBB21370FB79184600F092FB00F08FF8012000F028F800BF0837BD4680BD9364004080B400AF054A054B1B78DBB263F07F034D
:40064000DBB2137000BFBD4680BC70477364004080B500AF064B1B78002B04D1FFF7C2FF034B01221A70FFF7E3FF00BF80BD00BF5C81FF1F80B483B000AF0346FB71044A7D
:40068000FB79137000BF0C37BD4680BC704700BF8364004080B400AF034B1B78DBB21846BD4680BC704700BF6364004080B400AF034B1B889BB21846BD4680BC704700BFC6
:4006C0004468004080B483B000AF0346FB80044AFB88138000BF0C37BD4680BC704700BF4468004080B400AF034B1B889BB21846BD4680BC704700BF8468004080B483B066
:4007000000AF0346FB80044AFB88138000BF0C37BD4680BC704700BF0468004080B400AF044B1B78044B1B889BB21846BD4680BC704700BF026400408468004080B500AFB2
:4007400001E0FFF7CFFFFFF7A5FF034603F00803002BF6D100BF80BD80B582B000AF786000F03CF8786800F009F8072000F018F800F028F800BF0837BD4680BD80B485B044
:4007800000AF7860054B1B68FB60FB6840337A681A6000BF1437BD4680BC704708ED00E080B483B000AF0346FB71054AFB795B01DBB2137000BF0C37BD4680BC704700BFCC
:4007C00000E400E080B400AF034B01221A6000BFBD4680BC704700BF00E100E080B400AF034B01221A6000BFBD4680BC704700BF80E100E080B500AF282000F045FA032031
:4008000000F0DEF9052000F03FFA032000F0D8F90F2000F039FA032000F0D2F9012000F033FA022000F0CCF9052000F02DFA062000F0B4F80E2000F0B1F82C2000F0AEF8D3
:40084000082000F0ABF8012000F0A8F80C2000F0A5F8032000F0A2F8052000F015FA00BF80BD00BF80B500AF0C2000F097F8024B01221A7000BF80BD5D81FF1F80B500AF62
:40088000064B1B78002B04D1FFF7B4FF034B01221A70FFF7E7FF00BF80BD00BF5E81FF1F80B582B000AF03460A46FB711346BB71FB79032B26D801A252F823F0CD08000007
:4008C000DB080000E9080000F7080000BB79803BDBB2184600F062F815E0BB79403BDBB2184600F05BF80EE0BB796C3BDBB2184600F054F807E0BB792C3BDBB2184600F0E2
:400900004DF800E000BF00BF0837BD4680BD00BF80B584B000AF78600123FB737B681B78BB730BE0BB7B184600F01EF8FB7B7A6813441B78BB73FB7B0133FB73BB7B002B42
:40094000F0D100BF1037BD4680BD00BF80B582B000AF0346FB71FB79184600F005F800BF0837BD4680BD00BF80B584B000AF0346FB7100F02DF8FB791B09FB73FB7B18466E
:4009800000F0E2F8FB7903F00F03FB73FB7B184600F0DAF800BF1037BD4680BD80B584B000AF0346FB7100F013F8FB791B09FB73FB7B184600F004F9FB7903F00F03FB7334
:4009C000FB7B184600F0FCF800BF1037BD4680BD80B582B000AF4FF4CA737B60554A554B1B78DBB223F07F03DBB21370524B1B78DBB223F00F03FB704F4AFB7843F00F03E6
:400A0000DBB213704D4B1B78DBB223F00F03FB704A4AFB7813704A4B1B78DBB223F00F03FB70474AFB781370424A424B1B78DBB223F02003DBB213703E4A3E4B1B78DBB258
:400A400043F04003DBB21370002000F03FF9394A384B1B78DBB243F01003DBB21370012000F034F9374B1B78FB70324A314B1B78DBB223F01003DBB21370002000F026F9F1
:400A8000FB7803F00803FB702A4A2A4B1B78DBB243F01003DBB21370012000F017F9254A244B1B78DBB223F01003DBB21370FB78002B02D10A2000F009F97B68013B7B601F
:400AC000FB78002B02D07B68002BBDD1194A194B1B78DBB223F04003DBB21370154A154B1B78DBB223F07F03DBB21370124A124B1B78DBB223F00F03DBB213700F4B1B781E
:400B0000DBB223F00F03FB700C4AFB7843F00F03DBB213700A4B1B78DBB223F00F03FB70074AFB7843F00F03DBB2137000BF0837BD4680BD20510040225100402351004006
:400B4000245100402151004080B582B000AF0346FB711A4A194B1B78DBB243F02003DBB21370164A154B1B78DBB223F04003DBB21370002000F0AAF8104A104B1B78DBB228
:400B800023F00F03DBB213700C490C4B1B78DAB2FB791343DBB243F01003DBB20B70012000F094F8054A054B1B78DBB223F01003DBB2137000BF0837BD4680BD205100400F
:400BC00080B582B000AF0346FB71154A144B1B78DBB223F06003DBB21370114A104B1B78DBB223F00F03DBB213700D490C4B1B78DAB2FB791343DBB243F01003DBB20B704A
:400C0000012000F063F8064A054B1B78DBB223F01003DBB2137000BF0837BD4680BD00BF2051004080B582B000AF0346FB71FB791B09DBB21A46084B9B5C1846FFF786FE32
:400C4000FB7903F00F03044AD35C1846FFF77EFE00BF0837BD4680BD5C0F000080B582B000AF0346FB80FB881B0A9BB2DBB21846FFF7D8FFFB88DBB21846FFF7D3FF00BF89
:400C80000837BD4680BD00BF80B582B000AF786008E00C4B1B68184600F02EF87B68A3F500437B607B68B3F5004FF2D8064B1B687A6802FB03F3184600F01EF800BF08378A
:400CC000BD4680BDD880FF1FD080FF1F80B582B000AF0346FB80FB88054A127802FB03F3184600F009F800BF0837BD4680BD00BFD480FF1F00000000142816D902B40121E6
:400D000014381049097811F0C001890904B40E4A515C04BC00BF00BF00BF8841FDD500BF00BF02BC704700BF00BF70F10400FCD570470B050709EFF3108072B6704780F3A2
:400D40001088704700480040320D0000014B1868704700BF3C81FF1F0E4B70B51E460E4C0025E41AA410A54204D056F8253098470135F8E700F0FCF8084B094C1E46E41AED
:400D8000A4100025A54204D056F8253098470135F8E770BD7C0F00007C0F00007C0F0000840F000010B5431E0A44914204D011F8014B03F8014FF8E710BD034602449342DC
:400DC00002D003F8011BFAE77047000000000000544D522D31360000496E74436E743A00305100404000C05100401000F05100401000000001400010001401400008004080
:400E00000140000A004C0140000200500140200002520040016400403E02014026030140030501400107014002170140024001400841014001420140044801400250014066
:400E40000151014000030101830F4045420649FF4AFF4BFF4F01501856085A045B045F016040624064406540668068806A806C806E8088018E048F0192039301AE05B00415
:400E8000B202B401B601B701BE10BF40C054C202C5ECC720C823C9FFCAFFCBFFCD83CE03CF01D018D280D403D604D804D904DA04DB04DF01E040E240E440E540E680E8804C
:400EC000EA80EC80EE800010020208011340181419501B12224032023A8040044101468049054B404E024F205101520259155A805F80638064017280734083408B02C0037B
:400F0000C208C401CC01CE08D085D238D61FD811E6809F80B140EA809F8087809F803310CC105620570183108A209F10D440D620E220B30123208720C840E0400001080168
:400F4000000300000003030003000000000B0B0000000000007F7F00000000003031323334353637383941424344454643000000F8B500BFF8BC08BC9E4670474D000000A0
:400F800055050000F8B500BFF8BC08BC9E46704729000000A80F0000C880FF1F7800000020000000000000000000000000366E01C05D0000180000000000E02E0000000092
:400FC000000000000000000000000000000000000000000000000000000000006C0F0000000000000000000000000000000000000000000000000000000000000000000076
:4010000000000000000000000000000000000000000000000000000000000000DC80FF1F000000000000000000000000000000000000000000000000000000000000000036
:401040000000000000000000000000000000000000000000000000000000000000000000000000000000000000000000000000000000000000000000000000000000000070
:401080000000000000000000000000000000000000000000000000000000000000000000000000000000000000000000000000000000000000000000000000000000000030
:4010C00000000000000000000000000000000000000000000000000000000000000000000000000000000000000000000000000000000000000000000000000000000000F0
:4011000000000000000000000000000000000000000000000000000000000000000000000000000000000000000000000000000000000000000000000000000000000000AF
:0200000480007A
:0200000490006A
:0400000000004005B7
:0200000490105A
:04000000BC90ACAF55
:0200000490303A
:020000000D44AD
:0200000490402A
:4000000000000000000000000000000000000000000000000000000000000000000000000000000000000000000000000000000000000000000000000000000000000000C0
:400040000000000000000000000000000000000000000000000000000000000000000000000000000000000000000000000000000000000000000000000000000000000080
:400080000000000000000000000000000000000000000000000000000000000000000000000000000000000000000000000000000000000000000000000000000000000040
:4000C0000000000000000000000000000000000000000000000000000000000000000000000000000000000000000000000000000000000000000000000000000000000000
:0200000490501A
:0C00000000012E16106900012E1C1DAD21
:00000001FF