:400000000080002011000000110700001107000008B5044B1A6803F53F5302331A6000F07FFB00BFFA46004010B5054C237833B9044B13B10448AFF300800123237010BDCD
:400040004081FF1F00000000E4100000084B10B51BB108490848AFF300800848036803B910BD074B002BFBD0BDE81040184700BF000000004481FF1FE4100000C880FF1F2A
:400080000000000008B562B600F03CF86821002000F0DEF94FF4FA6000F0CCFB6821B42000F0D6F900F0A0F84FF4FA6000F0C2FB6821002000F0CCF900F096F84FF4FA601C
:4000C00000F0B8FB6821B42000F0C2F900F08CF84FF4FA6000F0AEFB6821002000F0B8F900F082F84FF4FA6000F0A4FB6821B42000F0AEF900F078F84FF4FA6000F09AFB55
:40010000C4E700BF704700BF08B5002000F062FB002000F083FB002000F074FB012000F065FB08BD08B5002000F078FB002000F069FB002000F05AFB012000F04BFB08BD3D
:4001400008B5002000F046FB002000F05BFB002000F04CFB012000F061FB08BD08B5002000F038FB002000F059FB002000F03EFB012000F047FB08BD08B5002000F04EFBA7
:40018000002000F03FFB012000F030FB012000F021FB08BD08B5002000F028FB002000F031FB012000F03AFB012000F013FB08BD08B5002000F00EFB002000F017FB012058
:4001C00000F020FB012000F029FB08BD08B5002000F024FB002000F0FDFA012000F006FB012000F00FFB08BD08B5002000F016FB002000F007FB002000F0F8FA002000F013
:40020000E9FA08BD08B5682879D0772803D0662840F0FD8039E07E4B1B78072B00F2F780DFE803F0040410101C1C2828012902D1FFF76AFF01E0FFF791FF754A1378023317
:40024000137008BD012902D1FFF76CFF01E0FFF777FF6F4A13780233137008BD012902D1FFF76EFF01E0FFF75DFF694A13780233137008BD012902D1FFF770FF01E0FFF743
:4002800043FF0022624B1A7008BD614B1B78072B00F2BD80DFE803F0040410101C1C2828012902D1FFF768FF01E0FFF78FFF584A13780233137008BD012902D1FFF76AFF0F
:4002C00001E0FFF775FF524A13780233137008BD012902D1FFF76CFF01E0FFF75BFF4C4A13780233137008BD012902D1FFF76EFF01E0FFF741FF0022454B1A7008BD444BDB
:400300001B78072B00F28380DFE803F00414243444546474012906D1FFF7F6FE3C4A13780133137008BDFFF751FF394A13780133137008BD012906D1FFF71EFF344A137804
:400340000133137008BDFFF709FF314A13780133137008BD012906D1FFF7E4FE2C4A13780133137008BDFFF723FF294A13780133137008BD012906D1FFF70CFF244A13789E
:400380000133137008BDFFF7DBFE214A13780133137008BD012906D1FFF7D2FE1C4A13780133137008BDFFF7F5FE194A13780133137008BD012906D1FFF7FAFE144A137821
:4003C0000133137008BDFFF7ADFE114A13780133137008BD012906D1FFF7C0FE0C4A13780133137008BDFFF7C7FE094A13780133137008BD012905D1FFF7E8FE0022044B0A
:400400001A7008BDFFF780FE0022014B1A7008BD5C81FF1F70B50E46051E0CDA08E000213046FFF7EFFE052000F004FA013C00E00024AC42F3DC002407E001213046FFF7B3
:40044000E1FE052000F0F6F90134AC42F5DB70BDB4282CD838B50D460446682913D1184B5868844222D0201A00F05CFB10A3D3E9002300F0BDFB00F0CDFD114B5C602946C3
:40048000FFF7C8FF38BD0E4B586884420ED0201A00F048FB08A3D3E9002300F0A9FB00F0B9FD074B5C602946FFF7B4FF38BD70474A0C022B8716D13FA01A2FDD2406C13FAA
:4004C0005C81FF1FFEE700BFF0B40022174611E050F82760F3B226F0FF0608E001EB420511F812406D78A5550132013BDBB2002BF4D101370D2FEBD9F0BC7047064B1B78FA
:40050000DBB203F00701054A11701B09013213704422034B1A707047CF0100496E5800407658004008B50A46002100F0D2FD08BD38B53322264B1A801823264A137040F604
:400540005F1102321180023213700222224B1A7008224FF040231A70032103F5007319701E4B1B78DBB21E490B701E4B1A8041F25122023B1A80002419250CE01A4B1B78D5
:4005800003F0010343EA440404F003044FF4F07000F066F9013D0DB1032CEFD115B90320FFF790FF114B4FF480721A8007221A7000220F490A704820023108701A700222EE
:4005C000033B1A700B4A137843F00303137038BD80400040824000400043004008010049A146004022420040254200400440004006400040A243004008B500F05FFD08BD5C
:4006000038B572B6334A137843F00403137000240CE0314D630019194A0011462A44084691882858FFF77EFF0134E4B2082CF0D900240BE02849A3001819420088188022B4
:40064000C16B806BFFF7D8FF0134E4B2002CF1D022494FF09040FFF737FF214A137843F0020313701032137843F0020313701D4C237843F040032370A2F58632513A13788D
:4006800043F0100313700A2217491848FFF7B4FF082217491748FFF7AFFF082216491748FFF7AAFF164A137843F008031370154D61232B70FFF73CFF81232B700122124BAB
:4006C0001A70FFF71BFF0E2221461048FFF794FF38BD00BFE8460040E81000003800004803500140A0430040C003004800510040CC03004812510040D4030048225100406F
:40070000224300400048004004000840B043004008B500F0A7FC03680C2B00D1FEE7FEE708B5104E104D16E029686B68AC68002204E051F8040B43F8040B0432A242F8D10F
:40074000E868002203E0002143F8041B04328242F9D11035013E002EE6D100F089FCFFF791FCFEE7010000005011000008B5104A104B1A60104A136843F40073136000233C
:400780000AE0032B03D80D4A52F8231000E00C490C4A42F8231001332F2BF2D90A4B1A780A4B1A70074A0A4B1A60FFF729FF08BD0004FA050CED00E014ED00E0000000009B
:4007C000110700000080FF1FBC760040C080FF1F08ED00E0044A137803F0FD03400000F0020018431070704720510040044A137803F07F03C001C0B218431070704700BF8B
:4008000010510040044A137803F0FE0300F0010018431070704700BF20510040044A137803F0BF03800100F040001843107070471051004010B5044605E0084B186800F02E
:400840000FF8A4F50044B4F5004FF6D8034B586800FB04F000F004F810BD00BFCC80FF1F0230800803D000BF01380046FCD17047EFF3108072B6704780F31088704700BFCE
:4008800081F0004102E000BF83F0004330B54FEA41044FEA430594EA050F08BF90EA020F1FBF54EA000C55EA020C7FEA645C7FEA655C00F0E2804FEA5454D4EB5555B8BF8C
:4008C0006D420CDD2C4480EA020281EA030382EA000083EA010180EA020281EA0303362D88BF30BD11F0004F4FEA01314FF4801C4CEA113102D0404261EB410113F0004F7A
:400900004FEA03334CEA133302D0524263EB430394EA050F00F0A780A4F10104D5F1200E0DDB02FA0EFC22FA05F2801841F1000103FA0EF2801843FA05F359410EE0A5F1E7
:4009400020050EF1200E012A03FA0EFC28BF4CF0020C43FA05F3C01851EBE37101F0004507D54FF0000EDCF1000C7EEB00006EEB0101B1F5801F1BD3B1F5001F0CD3490801
:400980005FEA30004FEA3C0C04F101044FEA445212F5800F80F09A80BCF1004F08BF5FEA500C50F1000041EB045141EA050130BD5FEA4C0C404141EB010111F4801FA4F183
:4009C0000104E9D191F0000F04BF01460020B1FA81F308BF2033A3F10B03B3F120020CDA0C3208DD02F1140CC2F10C0201FA0CF021FA02F10CE002F11402D8BFC2F1200C90
:400A000001FA02F120FA0CFCDCBF41EA0C019040E41AA2BF01EB0451294330BD6FEA04041F3C1CDA0C340EDC04F11404C4F1200220FA04F001FA02F340EA030021FA04F30D
:400A400045EA030130BDC4F10C04C4F1200220FA02F001FA04F340EA0300294630BD21FA04F0294630BD94F0000F83F4801306BF81F480110134013D4EE77FEA645C18BFB8
:400A80007FEA655C29D094EA050F08BF90EA020F05D054EA000C04BF1946104630BD91EA030F1EBF0021002030BD5FEA545C05D14000494128BF41F0004130BD14F58004A7
:400AC0003CBF01F5801130BD01F0004545F0FE4141F470014FF0000030BD7FEA645C1ABF194610467FEA655C1CBF0B46024650EA013406BF52EA033591EA030F41F400212B
:400B000030BD00BF90F0000F04BF0021704730B54FF4806404F132044FF000054FF0000150E700BF90F0000F04BF0021704730B54FF4806404F1320410F0004548BF4042FF
:400B40004FF000013EE700BF42004FEAE2014FEA31014FEA02701FBF12F07F4393F07F4F81F06051704792F0000F14BF93F07F4F704730B54FF4607401F0004521F0004121
:400B800020E700BF50EA010208BF704730B54FF000050AE050EA010208BF704730B511F0004502D5404261EB41014FF4806404F132045FEA915C3FF4DCAE4FF003025FEA02
:400BC000DC0C18BF03325FEADC0C18BF033202EBDC02C2F1200300FA03FC20FA02F001FA03FE40EA0E0021FA02F11444C1E600BF70B54FF0FF0C4CF4E06C1CEA11541DBFDC
:400C00001CEA135594EA0C0F95EA0C0F00F0DEF82C4481EA030621EA4C5123EA4C5350EA013518BF52EA033541F4801143F4801338D0A0FB02CE4FF00005E1FB02E506F05A
:400C40000042E0FB03E54FF00006E1FB03569CF0000F18BF4EF0010EA4F1FF04B6F5007F64F5407404D25FEA4E0E6D4146EB060642EAC62141EA55514FEAC52040EA5E5027
:400C80004FEACE2EB4F1FD0C88BFBCF5E06F1ED8BEF1004F08BF5FEA500E50F1000041EB045170BD06F0004646EA010140EA020081EA0301B4EB5C04C2BFD4EB0C0541EA35
:400CC000045170BD41F480114FF0000E013C00F3AB8014F1360FDEBF002001F0004170BDC4F10004203C35DA0C341BDC04F11404C4F1200500FA05F320FA04F001FA05F26A
:400D000040EA020001F0004221F0004110EBD37021FA04F642EB06015EEA430E08BF20EAD37070BDC4F10C04C4F1200500FA04F320FA05F001FA04F240EA020001F00041B3
:400D400010EBD37041F100015EEA430E08BF20EAD37070BDC4F1200500FA05F24EEA020E20FA04F301FA05F243EA020321FA04F001F0004121FA04F220EA020000EBD37054
:400D80005EEA430E08BF20EAD37070BD94F0000F0FD101F00046400041EB010111F4801F08BF013CF7D041EA060195F0000F18BF704703F00046520043EB030313F4801F19
:400DC00008BF013DF7D043EA0603704794EA0C0F0CEA135518BF95EA0C0F0CD050EA410618BF52EA4306D1D181EA030101F000414FF0000070BD50EA410606BF104619466F
:400E000052EA430619D094EA0C0F02D150EA013613D195EA0C0F05D152EA03361CBF104619460AD181EA030101F0004141F0FE4141F470014FF0000070BD41F0FE4141F46B
:400E4000780170BD70B54FF0FF0C4CF4E06C1CEA11541DBF1CEA135594EA0C0F95EA0C0F00F0A7F8A4EB050481EA030E52EA03354FEA013100F088804FEA03334FF08055EC
:400E800045EA131343EA12634FEA022245EA111545EA10654FEA00260EF000419D4208BF964244F1FD0404F5407402D25B084FEA3202B61A65EB03055B084FEA32024FF407
:400EC00080104FF4002CB6EB020E75EB030E22BFB61A754640EA0C005B084FEA3202B6EB020E75EB030E22BFB61A754640EA5C005B084FEA3202B6EB020E75EB030E22BF78
:400F0000B61A754640EA9C005B084FEA3202B6EB020E75EB030E22BFB61A754640EADC0055EA060E18D04FEA051545EA16754FEA06164FEAC30343EA52734FEAC2025FEA28
:400F40001C1CC0D111F4801F0BD141EA00014FF000004FF0004CB6E711F4801F04BF01430020B4F1FD0C88BFBCF5E06F3FF6AFAEB5EB030C04BFB6EB020C5FEA500C50F13C
:400F8000000041EB045170BD0EF0004E4EEA113114EB5C04C2BFD4EB0C0541EA045170BD41F480114FF0000E013C90E645EA060E8DE60CEA135594EA0C0F08BF95EA0C0F8C
:400FC0003FF43BAF94EA0C0F0AD150EA01347FF434AF95EA0C0F7FF425AF104619462CE795EA0C0F06D152EA03353FF4FDAE1046194622E750EA410618BF52EA43067FF421
:40100000C5AE50EA41047FF40DAF52EA43057FF4EBAE12E74FEA410212F5001215D211D56FF47873B3EB625212D94FEAC12343F0004343EA505311F0004F23FA02F018BF80
:40104000404270474FF00000704750EA013005D111F0004008BF6FF0004070474FF00000704700BF014B1868704700BF3C81FF1F0E4B70B51E460E4C0025E41AA410A542D6
:4010800004D056F8253098470135F8E700F04EF8084B094C1E46E41AA4100025A54204D056F8253098470135F8E770BD3811000038110000381100004011000010B5431EDB
:4010C0000A44914204D011F8014B03F8014FF8E710BD03460244934202D003F8011BFAE77047000000000000305100404000C05100401000F0510040100000000140800412
:4011000000050140000B00140140000800400140000A004C014000020050014020000000800401404003004880004300F8B500BFF8BC08BC9E4670474D0000006D070000E3
:40114000F8B500BFF8BC08BC9E4670472900000060110000C880FF1F7800000028000000000000000000E02EC05D00001800000000366E0100000000000000000000000068
:4011800000000000000000000000000000000000000000002A11000000000000000000000000000000000000000000000000000000000000000000000000000000000000F4
:4011C0000000000000000000000000000000000000000000DC80FF1F0000000000000000000000000000000000000000000000000000000000000000000000000000000075
:4012000000000000000000000000000000000000000000000000000000000000000000000000000000000000000000000000000000000000000000000000000000000000AE
:40124000000000000000000000000000000000000000000000000000000000000000000000000000000000000000000000000000000000000000000000000000000000006E
:40128000000000000000000000000000000000000000000000000000000000000000000000000000000000000000000000000000000000000000000000000000000000002E
:4012C00000000000000000000000000000000000000000000000000000000000000000000000000000000000000000000000000000000000000000000000000000000000EE
:020000040003F7
:0200000480007A
:40000000025200400464004055000140370101405702014039030140080401404305014002070140044001400A41014002420140035001400151014000020401800F823831
:40004000830D85720201060109100D030F0C12021308150317041D0A1F04200125032601270428012B052E02300233103601370F3B803E403F0440524103450C46EB480DC0
:4000800049FF4AFF4BFF4EF04F44500C5401580459045A045B045C015F0166C06A406B02805C8121820283548502862087248C098E109358946C95219611974C98809A03AF
:4000C0009C149D589F25A010A308AC70AE0CB080B16CB260B41FB51CB703B808B980BB22BE05D280D804D904DB04DD10DF010108034004040610074108020C800E241002CD
:40010000112012901440158019401A801D081E84200221402284251026102745281029082A102C402E023345374539803B203C064004430448014908508053105810594067
:400140005A085B0274028A40C0BCC2E8C49FCA86CCDBCECCD006D208D60FE220010A0301040C05190706080C09180F1813181518160219141B011C041E092318252726027A
:40018000280829272A042D2030023120320C3307360137183E014003474049FF4A074BFF4C404D204EF04F05500854185604580459045A045B045F01604061A8624063208A
:4001C00086028A02920198019E01A204A801AE04B201B402B604B808BE50C051C5ECC602C807C9FFCAFFCBFFCF01D018D401D804DA04DB04DD11DF01E040E240E440E540FB
:40020000E680E880EA80EC80EE80001804280628084009200A400F22108213101714181019601C201E201F412504260227022C402D012E282F02361637103D083E403F12B1
:400240004002414045084802490550805140561259455F0265206601670282019C029E12A002A108AA40AF12C066C2ABC46BCAF0CCE0CEF0D048D208D68BD8B0100114010B
:400280001801280130013E0158045F01058106040720092A0B100C040E080F02100412081401151416C118401D2B1E48260827442C042E482F4034013580360437203C20C6
:4002C0003D1C3E803F02452047444D804E024F10540457105C406C146F02760D772086408710938094289501964097109F04A010A104A202A301A404A520A604A712AF01D5
:40030000C0F0C2EEC4F2CAF0CCF0CEF0D070D230D610B101B208334037108B08CC300380570883109F10A308AB40C010D440E220EE80AF80EC10000308030A01000F000035
:400340000F0410800C00004004000080003F1300001000000C27131813180C00010000231F00000403080000023C0002081C00211CC0001F0F38000000002A0800000001C7
:40038000250603000100C00E18FFFFFF62A0F0410C000000000002100404040400000001000000000000400200103010001010120000000000000000000000000000000005
:4003C00002000102020002000000000000CBCB0000000000000303000000000000000000000000000000000000000000000000000000000000000000000000000000000058
:4004000000000000000000000000000000000000000000000000000000000000000000000000000000000000000000000000000000000000000000000000000000000000BC
:40044000000000000000000000000000000000000000000000000000000000000000000000000000000000000000000000000000000000000000000000000000000000007C
:40048000000000000000000000000000000000000000000000000000000000000000000000000000000000000000000000000000000000000000000000000000000000003C
:4004C00000000000000000000000000000000000000000000000000000000000000000000000000000000000000000000000000000000000000000000000000000000000FC
:0200000490006A
:0400000000004005B7
:0200000490105A
:04000000BC90ACAF55
:0200000490303A
:02000000C61127
:0200000490402A
:4000000000000000000000000000000000000000000000000000000000000000000000000000000000000000000000000000000000000000000000000000000000000000C0
:400040000000000000000000000000000000000000000000000000000000000000000000000000000000000000000000000000000000000000000000000000000000000080
:400080000000000000000000000000000000000000000000000000000000000000000000000000000000000000000000000000000000000000000000000000000000000040
:4000C0000000000000000000000000000000000000000000000000000000000000000000000000000000000000000000000000000000000000000000000000000000000000
:0200000490501A
:0C00000000012E16106900012E1DD67A9A
:00000001FF